:040000001C0F0000D1
:040001001C0F0000D0
:04000200180E0000D4
:04000300180F0000D2
:040004000C011831A2
:040005000C011930A1
:040006000C012002C7
:040007000C0142089E
:040008000C01600087
:040009000C070400DC
:04000A000C01184984
:04000B000C0118C804
:04000C000C014002A1
:04000D000C012210B0
:04000E000C01600081
:04000F000C0D0000D4
:040010000C0D600073
:040011000C050400D6
:040012000F330000A8
:040013000F33600047
:040014000F3300089E
:040015000F3360083D
:040016001E2F000099
:040017001F3F000087
:040018001E0F0000B7
:040019000E030000D2
:04001A000E230000B1
:04001B000CCB00000A
:04001C000CCB6000A9
:04001D000CCB000800
:04001E000CCB60089F
:04001F001CCF0000F2
:040020000C0B0008BD
:040021000C0F0000C0
:0400220000000000DA
:0400230000000000D9
:0400240000000000D8
:0400250000000000D7
:0400260000000000D6
:0400270000000000D5
:0400280000000000D4
:0400290000000000D3
:04002A0000000000D2
:04002B0000000000D1
:04002C0000000000D0
:04002D0000000000CF
:04002E0000000000CE
:04002F0000000000CD
:0400300000000000CC
:0400310000000000CB
:0400320000000000CA
:0400330000000000C9
:0400340000000000C8
:0400350000000000C7
:0400360000000000C6
:0400370000000000C5
:0400380000000000C4
:0400390000000000C3
:04003A0000000000C2
:04003B0000000000C1
:04003C0000000000C0
:04003D0000000000BF
:04003E0000000000BE
:04003F0000000000BD
:00000001FF
